{
  "contractName": "IDManagement",
  "abi": [
    {
      "constant": true,
      "inputs": [
        {
          "name": "",
          "type": "uint64"
        }
      ],
      "name": "Userdb",
      "outputs": [
        {
          "name": "exists",
          "type": "bool"
        },
        {
          "name": "subHash",
          "type": "string"
        }
      ],
      "payable": false,
      "stateMutability": "view",
      "type": "function"
    },
    {
      "constant": false,
      "inputs": [
        {
          "name": "hash",
          "type": "string"
        }
      ],
      "name": "registerUser",
      "outputs": [
        {
          "name": "status",
          "type": "int256"
        }
      ],
      "payable": false,
      "stateMutability": "nonpayable",
      "type": "function"
    },
    {
      "constant": true,
      "inputs": [
        {
          "name": "hash1",
          "type": "string"
        },
        {
          "name": "hash2",
          "type": "string"
        }
      ],
      "name": "txnCheck",
      "outputs": [
        {
          "name": "",
          "type": "bool"
        }
      ],
      "payable": false,
      "stateMutability": "view",
      "type": "function"
    },
    {
      "constant": true,
      "inputs": [
        {
          "name": "hash",
          "type": "string"
        }
      ],
      "name": "regStatus",
      "outputs": [
        {
          "name": "",
          "type": "bool"
        }
      ],
      "payable": false,
      "stateMutability": "view",
      "type": "function"
    },
    {
      "constant": true,
      "inputs": [
        {
          "name": "str",
          "type": "string"
        },
        {
          "name": "startIndex",
          "type": "uint256"
        },
        {
          "name": "endIndex",
          "type": "uint256"
        }
      ],
      "name": "substring",
      "outputs": [
        {
          "name": "",
          "type": "string"
        }
      ],
      "payable": false,
      "stateMutability": "pure",
      "type": "function"
    },
    {
      "constant": true,
      "inputs": [
        {
          "name": "source",
          "type": "string"
        }
      ],
      "name": "stringToUint64",
      "outputs": [
        {
          "name": "",
          "type": "uint64"
        }
      ],
      "payable": false,
      "stateMutability": "pure",
      "type": "function"
    }
  ],
  "bytecode": "0x608060405260046000806101000a81548167ffffffffffffffff021916908367ffffffffffffffff16021790555034801561003957600080fd5b50610fbe806100496000396000f300608060405260043610610078576000357c0100000000000000000000000000000000000000000000000000000000900463ffffffff1680631dcd9b551461007d5780632fbf8efc146101735780635de080fa146101f4578063704f1b94146102af578063cc9c9bc21461032c578063f1e08ddd146103f3575b600080fd5b34801561008957600080fd5b506100f8600480360381019080803590602001908201803590602001908080601f01602080910402602001604051908101604052809392919081815260200183838082843782019150505050505091929192908035906020019092919080359060200190929190505050610484565b6040518080602001828103825283818151815260200191508051906020019080838360005b8381101561013857808201518184015260208101905061011d565b50505050905090810190601f1680156101655780820380516001836020036101000a031916815260200191505b509250505060405180910390f35b34801561017f57600080fd5b506101da600480360381019080803590602001908201803590602001908080601f0160208091040260200160405190810160405280939291908181526020018383808284378201915050505050509192919290505050610585565b604051808215151515815260200191505060405180910390f35b34801561020057600080fd5b50610229600480360381019080803567ffffffffffffffff169060200190929190505050610617565b604051808315151515815260200180602001828103825283818151815260200191508051906020019080838360005b83811015610273578082015181840152602081019050610258565b50505050905090810190601f1680156102a05780820380516001836020036101000a031916815260200191505b50935050505060405180910390f35b3480156102bb57600080fd5b50610316600480360381019080803590602001908201803590602001908080601f01602080910402602001604051908101604052809392919081815260200183838082843782019150505050505091929192905050506106e0565b6040518082815260200191505060405180910390f35b34801561033857600080fd5b506103d9600480360381019080803590602001908201803590602001908080601f0160208091040260200160405190810160405280939291908181526020018383808284378201915050505050509192919290803590602001908201803590602001908080601f0160208091040260200160405190810160405280939291908181526020018383808284378201915050505050509192919290505050610a5b565b604051808215151515815260200191505060405180910390f35b3480156103ff57600080fd5b5061045a600480360381019080803590602001908201803590602001908080601f0160208091040260200160405190810160405280939291908181526020018383808284378201915050505050509192919290505050610aa8565b604051808267ffffffffffffffff1667ffffffffffffffff16815260200191505060405180910390f35b606080606060008692508585036040519080825280601f01601f1916602001820160405280156104c35781602001602082028038833980820191505090505b5091508590505b848110156105785782818151811015156104e057fe5b9060200101517f010000000000000000000000000000000000000000000000000000000000000090047f0100000000000000000000000000000000000000000000000000000000000000028287830381518110151561053b57fe5b9060200101907effffffffffffffffffffffffffffffffffffffffffffffffffffffffffffff1916908160001a90535080806001019150506104ca565b8193505050509392505050565b6000806105bd6105b8846002806000809054906101000a900467ffffffffffffffff160167ffffffffffffffff16610484565b610aa8565b905060011515600160008367ffffffffffffffff1667ffffffffffffffff16815260200190815260200160002060000160009054906101000a900460ff161515141561060c5760019150610611565b600091505b50919050565b60016020528060005260406000206000915090508060000160009054906101000a900460ff1690806001018054600181600116156101000203166002900480601f0160208091040260200160405190810160405280929190818152602001828054600181600116156101000203166002900480156106d65780601f106106ab576101008083540402835291602001916106d6565b820191906000526020600020905b8154815290600101906020018083116106b957829003601f168201915b5050505050905082565b60008060606106ed610ed1565b61072261071d866002806000809054906101000a900467ffffffffffffffff160167ffffffffffffffff16610484565b610aa8565b92506107528560026000809054906101000a900467ffffffffffffffff160167ffffffffffffffff166042610484565b915060001515600160008567ffffffffffffffff1667ffffffffffffffff16815260200190815260200160002060000160009054906101000a900460ff161515141561082657600181600001901515908115158152505081816020018190525080600160008567ffffffffffffffff1667ffffffffffffffff16815260200190815260200160002060008201518160000160006101000a81548160ff0219169083151502179055506020820151816001019080519060200190610816929190610eed565b5090505060019350839350610a53565b60011515600160008567ffffffffffffffff1667ffffffffffffffff16815260200190815260200160002060000160009054906101000a900460ff1615151415610a52576000151561093a600160008667ffffffffffffffff1667ffffffffffffffff1681526020019081526020016000206001018054600181600116156101000203166002900480601f01602080910402602001604051908101604052809291908181526020018280546001816001161561010002031660029004801561092f5780601f106109045761010080835404028352916020019161092f565b820191906000526020600020905b81548152906001019060200180831161091257829003601f168201915b505050505084610adb565b1515141561094e5760009350839350610a53565b60011515610a1e600160008667ffffffffffffffff1667ffffffffffffffff1681526020019081526020016000206001018054600181600116156101000203166002900480601f016020809104026020016040519081016040528092919081815260200182805460018160011615610100020316600290048015610a135780601f106109e857610100808354040283529160200191610a13565b820191906000526020600020905b8154815290600101906020018083116109f657829003601f168201915b505050505084610adb565b15151415610a51577fffffffffffffffffffffffffffffffffffffffffffffffffffffffffffffffff9350839350610a53565b5b5b505050919050565b600080600080915060009050610a7085610c8c565b9150610a7b84610c8c565b9050600182148015610a8d5750600181145b15610a9b5760019250610aa0565b600092505b505092915050565b600080610ab483610e8b565b90508078010000000000000000000000000000000000000000000000009004915050919050565b6000816040516020018082805190602001908083835b602083101515610b165780518252602082019150602081019050602083039250610af1565b6001836020036101000a0380198251168184511680821785525050505050509050019150506040516020818303038152906040526040518082805190602001908083835b602083101515610b7f5780518252602082019150602081019050602083039250610b5a565b6001836020036101000a038019825116818451168082178552505050505050905001915050604051809103902060001916836040516020018082805190602001908083835b602083101515610be95780518252602082019150602081019050602083039250610bc4565b6001836020036101000a0380198251168184511680821785525050505050509050019150506040516020818303038152906040526040518082805190602001908083835b602083101515610c525780518252602082019150602081019050602083039250610c2d565b6001836020036101000a03801982511681845116808217855250505050505090500191505060405180910390206000191614905092915050565b6000806060610c99610ed1565b610cce610cc9866002806000809054906101000a900467ffffffffffffffff160167ffffffffffffffff16610484565b610aa8565b9250610cfe8560026000809054906101000a900467ffffffffffffffff160167ffffffffffffffff166040610484565b9150600160008467ffffffffffffffff1667ffffffffffffffff1681526020019081526020016000206040805190810160405290816000820160009054906101000a900460ff16151515158152602001600182018054600181600116156101000203166002900480601f016020809104026020016040519081016040528092919081815260200182805460018160011615610100020316600290048015610de65780601f10610dbb57610100808354040283529160200191610de6565b820191906000526020600020905b815481529060010190602001808311610dc957829003601f168201915b505050505081525050905060001515816000015115151415610e2a577fffffffffffffffffffffffffffffffffffffffffffffffffffffffffffffffff9350610e83565b60011515816000015115151415610e825760011515610e4d826020015184610adb565b15151415610e5e5760019350610e83565b60001515610e70826020015184610adb565b15151415610e815760009350610e83565b5b5b505050919050565b60006060829050600081511415610ec05760007801000000000000000000000000000000000000000000000000029150610ecb565b602083015191508191505b50919050565b6040805190810160405280600015158152602001606081525090565b828054600181600116156101000203166002900490600052602060002090601f016020900481019282601f10610f2e57805160ff1916838001178555610f5c565b82800160010185558215610f5c579182015b82811115610f5b578251825591602001919060010190610f40565b5b509050610f699190610f6d565b5090565b610f8f91905b80821115610f8b576000816000905550600101610f73565b5090565b905600a165627a7a72305820ffd3c619524cded08f59d01eedb2a090edfb405b5442b66f9e87f2ea66e3e2990029",
  "source": "pragma solidity ^0.4.25;\n\n/*\n    TEST USER HASHES (256 bit)\n    \n    0x88d4266fd4e6338d13b845fcf289579d209c897823b9217da3e161936f031589\n    0xba7816bf8f01cfea414140de5dae2223b00361a396177a9cb410ff61f20015ad\n*/\n\ncontract IDManagement {\n    \n    uint64 keyLen = 4;\n    \n    struct User {\n        bool exists;\n        string subHash;\n    }\n    \n    mapping (uint64 => User) public Userdb;\n\n/*============================================================================\n    USER REGISTRATION\n    \n    Registers a new user. It splits input hash into key-subHash pairs\n    key     : 8 bytes (64 bits)\n    subHash     : 24 bytes (192 bits)\n    1 byte  : 8 bits = 2 chars in hexadecimal representation (00-ff)\n============================================================================*/\n\n    function registerUser(string hash) public returns (int status) {\n        \n        uint64 key = stringToUint64(substring(hash, 2, keyLen+2));\n        string memory checkVal = substring(hash, keyLen+2, 66);\n        \n        if (Userdb[key].exists == false) {\n            // Register new user in the system\n            User memory newUser;\n            \n            newUser.exists = true;\n            newUser.subHash = checkVal;\n            Userdb[key] = newUser;\n            \n            // New user registered\n            status = 1;\n            return status;\n        }\n        else if (Userdb[key].exists == true) {\n            if (equalStrings(Userdb[key].subHash, checkVal) == false) {\n                // Invalid user credentials or Key collision\n                status = 0;\n                return status;\n            }\n            else if (equalStrings(Userdb[key].subHash, checkVal) == true) {\n                // Raise alert\n                status = -1;\n                return status;\n            }\n        }\n    }\n\n\n\n/*============================================================================  \n    USER VALIDATION\n    \n    Validates the user to perform various operations on the network\n    As every user we create has a unique subHash as a property\n============================================================================*/\n\n    function validateUser(string hash) view internal returns(int) {\n        uint64 key = stringToUint64(substring(hash, 2, keyLen+2));\n        string memory checkVal = substring(hash, keyLen+2, 64);\n        \n        User memory temp = Userdb[key];\n        \n        if (temp.exists == false) {\n            // User does not exists, Ask user to register\n            return -1;\n        }\n        else if (temp.exists == true) {\n            \n            if (equalStrings(temp.subHash, checkVal) == true) {\n                // User is valid, Permitted to transact\n                return 1;\n            }\n            else if(equalStrings(temp.subHash, checkVal) == false) {\n                // Raise alert, Invalid user credentials\n                return 0;\n            }\n        }\n    }\n\n    \n/*============================================================================\n    INTERACTION ELIGIBILITY\n    \n    Forwards the interaction to ethereum ONLY IF both users are registered\n    Validates this condition using resX return value from validateUser()\n    \n    For resX = -1    : User does not exists; Ask user to register\n    For resX = 0     : Invalid details. Re-enter/update account credentials\n============================================================================*/\n    \n    function txnCheck(string hash1, string hash2) public view returns (bool) {\n        \n        // Local var to store return values from validate function\n        int res1 = 0;\n        int res2 = 0;\n        \n        res1 = validateUser(hash1);\n        res2 = validateUser(hash2);\n        \n        if (res1 == 1 && res2 == 1) {\n            // Allows interaction\n            return true;\n        }\n        else {\n            // Raise alert - User is not permitted to transact\n            // Txn not authorised\n            return false;\n        }\n    }\n    \n/*============================================================================\n    VIEW FUNCTIONS\n    \n    We define 'view' functions for each process, required for 'geth' console\n    As solidity shows output only for 'view' or 'pure' functions\n============================================================================*/\n\n\n    function regStatus(string hash) view public returns (bool) {\n        uint64 key = stringToUint64(substring(hash, 2, keyLen+2));\n        \n        if(Userdb[key].exists == true) {\n            return true;\n        }\n        else {\n            return false;\n        }\n    }\n\n\n/*============================================================================\n    OTHER FUNCTIONS\n    \n    Contains the code for some necessary functions,\n    Since solidity does not have predefined libraries or modules\n============================================================================*/\n\n    \n    // Solidity does not have pre-defined substring function\n    function substring(string str, uint startIndex, uint endIndex) pure public returns (string) {\n        bytes memory strBytes = bytes(str);\n        bytes memory result = new bytes(endIndex-startIndex);\n        for(uint i = startIndex; i < endIndex; i++) {\n            result[i-startIndex] = strBytes[i];\n        }\n        return string(result);\n    }\n    \n    // Mapping is not defined for dynamic-sized keys (eg. strings)\n    // This converts the key from : string -> bytes8 -> uint64\n    function stringToUint64(string memory source) pure public returns (uint64) {\n        bytes8 ans = stringToBytes8(source);\n        return uint64(ans);\n    }\n    \n    function stringToBytes8(string memory source) pure internal returns (bytes8 result) {\n        bytes memory tempEmptyStringTest = bytes(source);\n        if (tempEmptyStringTest.length == 0) {\n            return 0x0;\n        }\n        assembly {\n            result := mload(add(source, 32))\n        }\n        return result;\n    }\n    \n    // Checks string equality; Returns true if equal, false otherwise\n    function equalStrings (string memory a, string memory b) pure internal returns (bool) {\n        return (keccak256(abi.encodePacked((a))) == keccak256(abi.encodePacked((b))));\n    }\n}\n",
  "sourcePath": "/home/amey/ceeri/IDMTruffle/contracts/IDManagement.sol",
  "compiler": {
    "name": "solc",
    "version": "0.4.26+commit.4563c3fc.Emscripten.clang"
  },
  "schemaVersion": "2.0.3",
  "updatedAt": "2020-01-14T07:56:02.386Z"
}